:020000040000FA
:0400000007EF00F016
:10000800108290ED00F099EF00F0000E956E000E52
:10001800936E950ED56EF288F28EF28A0B0ED76E1D
:10002800DC0ED66E3F0E026E060E036E5B0E046E7D
:100038004F0E056E660E066E6D0E076E7D0E086E0F
:10004800070E096E7F0E0A6E6F0E0B6E000E0C6E99
:10005800000E0D6E000E0E6E800E816E020E0F24C5
:10006800D96EDA6A000EDA22DF50836E1A0E016E3C
:10007800F80EE82EFED7012EFCD700D0400E816E78
:10008800020E0C24D96EDA6A000EDA22DF50836E73
:100098001A0E016EF80EE82EFED7012EFCD700D0FE
:1000A800200E816E020E0D24D96EDA6A000EDA2255
:1000B800DF50836E0FA0838E1A0E016EF80EE82EA5
:1000C800FED7012EFCD700D0100E816E020E0E2432
:1000D800D96EDA6A000EDA22DF50836E1A0E016ECC
:1000E800F80EE82EFED7012EFCD700D0090E0F64BB
:1000F800B3D7000E0F6E0C2A050E0C64ADD7000E98
:100108000C6E0D2A090E0D64A7D7000E0D6E0E2A6F
:10011800050E0E64A1D79ED706000F2A0B0ED76EC8
:10012800DC0ED66EF294109211000F6A10901092A5
:06013800000109EF00F0D8
:020000040020DA
:08000000FFFFFFFFFFFFFFFF00
:020000040030CA
:0E000000FF071F1FFF8385FF0FC00FE00F409B
:00000001FF
